{
  "_format": "hh-sol-artifact-1",
  "contractName": "Greeter",
  "sourceName": "contracts/Greeter.sol",
  "abi": [
    {
      "inputs": [],
      "stateMutability": "nonpayable",
      "type": "constructor"
    },
    {
      "anonymous": false,
      "inputs": [
        {
          "indexed": false,
          "internalType": "string",
          "name": "dupa",
          "type": "string"
        }
      ],
      "name": "Dupa",
      "type": "event"
    },
    {
      "anonymous": false,
      "inputs": [
        {
          "indexed": false,
          "internalType": "string",
          "name": "greeting",
          "type": "string"
        }
      ],
      "name": "Greeting",
      "type": "event"
    },
    {
      "inputs": [],
      "name": "dupa",
      "outputs": [
        {
          "internalType": "string",
          "name": "",
          "type": "string"
        }
      ],
      "stateMutability": "nonpayable",
      "type": "function"
    },
    {
      "inputs": [],
      "name": "greet",
      "outputs": [
        {
          "internalType": "string",
          "name": "",
          "type": "string"
        }
      ],
      "stateMutability": "nonpayable",
      "type": "function"
    },
    {
      "inputs": [
        {
          "internalType": "string",
          "name": "_greeting",
          "type": "string"
        }
      ],
      "name": "setGreeting",
      "outputs": [],
      "stateMutability": "nonpayable",
      "type": "function"
    }
  ],
  "bytecode": "0x608060405234801561001057600080fd5b506040518060400160405280601081526020017f68656c6c6f206d6f7468616675636b61000000000000000000000000000000008152506000908051906020019061005c929190610062565b50610166565b82805461006e90610105565b90600052602060002090601f01602090048101928261009057600085556100d7565b82601f106100a957805160ff19168380011785556100d7565b828001600101855582156100d7579182015b828111156100d65782518255916020019190600101906100bb565b5b5090506100e491906100e8565b5090565b5b808211156101015760008160009055506001016100e9565b5090565b6000600282049050600182168061011d57607f821691505b6020821081141561013157610130610137565b5b50919050565b7f4e487b7100000000000000000000000000000000000000000000000000000000600052602260045260246000fd5b61062c806101756000396000f3fe608060405234801561001057600080fd5b50600436106100415760003560e01c806397bb705a14610046578063a413686214610064578063cfae321714610080575b600080fd5b61004e61009e565b60405161005b91906103bc565b60405180910390f35b61007e600480360381019061007991906102fc565b610110565b005b61008861012a565b60405161009591906103bc565b60405180910390f35b60607fae6c9e7498e4c80af2e9a69817d9f785b8333376941320b4284814e7a22685246040516100cd906103fe565b60405180910390a16040518060400160405280600481526020017f6475706100000000000000000000000000000000000000000000000000000000815250905090565b80600090805190602001906101269291906101f1565b5050565b60607fa5263230ff6fc3abbbad333e24faf0f402b4e050b83a1d30ad4051f4e5d0f727604051610159906103de565b60405180910390a16000805461016e906104d2565b80601f016020809104026020016040519081016040528092919081815260200182805461019a906104d2565b80156101e75780601f106101bc576101008083540402835291602001916101e7565b820191906000526020600020905b8154815290600101906020018083116101ca57829003601f168201915b5050505050905090565b8280546101fd906104d2565b90600052602060002090601f01602090048101928261021f5760008555610266565b82601f1061023857805160ff1916838001178555610266565b82800160010185558215610266579182015b8281111561026557825182559160200191906001019061024a565b5b5090506102739190610277565b5090565b5b80821115610290576000816000905550600101610278565b5090565b60006102a76102a284610443565b61041e565b9050828152602081018484840111156102bf57600080fd5b6102ca848285610490565b509392505050565b600082601f8301126102e357600080fd5b81356102f3848260208601610294565b91505092915050565b60006020828403121561030e57600080fd5b600082013567ffffffffffffffff81111561032857600080fd5b610334848285016102d2565b91505092915050565b600061034882610474565b610352818561047f565b935061036281856020860161049f565b61036b81610593565b840191505092915050565b6000610383600c8361047f565b915061038e826105a4565b602082019050919050565b60006103a6600b8361047f565b91506103b1826105cd565b602082019050919050565b600060208201905081810360008301526103d6818461033d565b905092915050565b600060208201905081810360008301526103f781610376565b9050919050565b6000602082019050818103600083015261041781610399565b9050919050565b6000610428610439565b90506104348282610504565b919050565b6000604051905090565b600067ffffffffffffffff82111561045e5761045d610564565b5b61046782610593565b9050602081019050919050565b600081519050919050565b600082825260208201905092915050565b82818337600083830152505050565b60005b838110156104bd5780820151818401526020810190506104a2565b838111156104cc576000848401525b50505050565b600060028204905060018216806104ea57607f821691505b602082108114156104fe576104fd610535565b5b50919050565b61050d82610593565b810181811067ffffffffffffffff8211171561052c5761052b610564565b5b80604052505050565b7f4e487b7100000000000000000000000000000000000000000000000000000000600052602260045260246000fd5b7f4e487b7100000000000000000000000000000000000000000000000000000000600052604160045260246000fd5b6000601f19601f8301169050919050565b7f67726565742063616c6c65640000000000000000000000000000000000000000600082015250565b7f647570612063616c6c656400000000000000000000000000000000000000000060008201525056fea264697066735822122080a4f272b3773280a09b06e1a5f93efd5c4ede9a3c01b987bc774a00ff3434ea64736f6c63430008040033",
  "linkReferences": {},
  "deployedLinkReferences": {}
}